{
  "_format": "hh-sol-artifact-1",
  "contractName": "AMM",
  "sourceName": "contracts/AMM.sol",
  "abi": [
    {
      "inputs": [
        {
          "internalType": "contract IERC20",
          "name": "_tokenX",
          "type": "address"
        },
        {
          "internalType": "contract IERC20",
          "name": "_tokenY",
          "type": "address"
        }
      ],
      "stateMutability": "nonpayable",
      "type": "constructor"
    },
    {
      "inputs": [],
      "name": "PRECISION",
      "outputs": [
        {
          "internalType": "uint256",
          "name": "",
          "type": "uint256"
        }
      ],
      "stateMutability": "view",
      "type": "function"
    },
    {
      "inputs": [
        {
          "internalType": "contract IERC20",
          "name": "_inToken",
          "type": "address"
        },
        {
          "internalType": "uint256",
          "name": "_amountIn",
          "type": "uint256"
        }
      ],
      "name": "getEquivalentToken",
      "outputs": [
        {
          "internalType": "uint256",
          "name": "",
          "type": "uint256"
        }
      ],
      "stateMutability": "view",
      "type": "function"
    },
    {
      "inputs": [
        {
          "internalType": "contract IERC20",
          "name": "_outToken",
          "type": "address"
        },
        {
          "internalType": "uint256",
          "name": "_amountOut",
          "type": "uint256"
        }
      ],
      "name": "getSwapEstimateIn",
      "outputs": [
        {
          "internalType": "uint256",
          "name": "",
          "type": "uint256"
        }
      ],
      "stateMutability": "view",
      "type": "function"
    },
    {
      "inputs": [
        {
          "internalType": "contract IERC20",
          "name": "_inToken",
          "type": "address"
        },
        {
          "internalType": "uint256",
          "name": "_amountIn",
          "type": "uint256"
        }
      ],
      "name": "getSwapEstimateOut",
      "outputs": [
        {
          "internalType": "uint256",
          "name": "",
          "type": "uint256"
        }
      ],
      "stateMutability": "view",
      "type": "function"
    },
    {
      "inputs": [
        {
          "internalType": "contract IERC20",
          "name": "_token",
          "type": "address"
        },
        {
          "internalType": "uint256",
          "name": "_share",
          "type": "uint256"
        }
      ],
      "name": "getWithdrawEstimate",
      "outputs": [
        {
          "internalType": "uint256",
          "name": "",
          "type": "uint256"
        }
      ],
      "stateMutability": "view",
      "type": "function"
    },
    {
      "inputs": [
        {
          "internalType": "contract IERC20",
          "name": "_tokenX",
          "type": "address"
        },
        {
          "internalType": "uint256",
          "name": "_amountX",
          "type": "uint256"
        },
        {
          "internalType": "contract IERC20",
          "name": "_tokenY",
          "type": "address"
        },
        {
          "internalType": "uint256",
          "name": "_amountY",
          "type": "uint256"
        }
      ],
      "name": "provide",
      "outputs": [
        {
          "internalType": "uint256",
          "name": "",
          "type": "uint256"
        }
      ],
      "stateMutability": "nonpayable",
      "type": "function"
    },
    {
      "inputs": [
        {
          "internalType": "address",
          "name": "",
          "type": "address"
        }
      ],
      "name": "share",
      "outputs": [
        {
          "internalType": "uint256",
          "name": "",
          "type": "uint256"
        }
      ],
      "stateMutability": "view",
      "type": "function"
    },
    {
      "inputs": [
        {
          "internalType": "contract IERC20",
          "name": "_inToken",
          "type": "address"
        },
        {
          "internalType": "contract IERC20",
          "name": "_outToken",
          "type": "address"
        },
        {
          "internalType": "uint256",
          "name": "_amountIn",
          "type": "uint256"
        }
      ],
      "name": "swap",
      "outputs": [
        {
          "internalType": "uint256",
          "name": "",
          "type": "uint256"
        }
      ],
      "stateMutability": "nonpayable",
      "type": "function"
    },
    {
      "inputs": [
        {
          "internalType": "contract IERC20",
          "name": "",
          "type": "address"
        }
      ],
      "name": "totalAmount",
      "outputs": [
        {
          "internalType": "uint256",
          "name": "",
          "type": "uint256"
        }
      ],
      "stateMutability": "view",
      "type": "function"
    },
    {
      "inputs": [],
      "name": "totalShare",
      "outputs": [
        {
          "internalType": "uint256",
          "name": "",
          "type": "uint256"
        }
      ],
      "stateMutability": "view",
      "type": "function"
    },
    {
      "inputs": [
        {
          "internalType": "uint256",
          "name": "_share",
          "type": "uint256"
        }
      ],
      "name": "withdraw",
      "outputs": [
        {
          "internalType": "uint256",
          "name": "",
          "type": "uint256"
        },
        {
          "internalType": "uint256",
          "name": "",
          "type": "uint256"
        }
      ],
      "stateMutability": "nonpayable",
      "type": "function"
    }
  ],
  "bytecode": "0x60806040523480156200001157600080fd5b50604051620021b6380380620021b683398181016040528101906200003791906200013e565b816000806101000a81548173ffffffffffffffffffffffffffffffffffffffff021916908373ffffffffffffffffffffffffffffffffffffffff16021790555080600160006101000a81548173ffffffffffffffffffffffffffffffffffffffff021916908373ffffffffffffffffffffffffffffffffffffffff160217905550505062000185565b600080fd5b600073ffffffffffffffffffffffffffffffffffffffff82169050919050565b6000620000f282620000c5565b9050919050565b60006200010682620000e5565b9050919050565b6200011881620000f9565b81146200012457600080fd5b50565b60008151905062000138816200010d565b92915050565b60008060408385031215620001585762000157620000c0565b5b6000620001688582860162000127565b92505060206200017b8582860162000127565b9150509250929050565b61202180620001956000396000f3fe608060405234801561001057600080fd5b50600436106100a95760003560e01c806387b292f91161007157806387b292f91461018d578063a37230ae146101bd578063aaf5eb68146101ed578063bfa7d42f1461020b578063d72b9da21461023b578063df791e501461026b576100a9565b8063026c4207146100ae5780631877bb5c146100cc5780632e1a7d4d146100fc5780633279081a1461012d57806349b81b101461015d575b600080fd5b6100b661029b565b6040516100c391906116c3565b60405180910390f35b6100e660048036038101906100e19190611741565b6102a1565b6040516100f391906116c3565b60405180910390f35b6101166004803603810190610111919061179a565b6102b9565b6040516101249291906117c7565b60405180910390f35b6101476004803603810190610142919061182e565b6106ed565b60405161015491906116c3565b60405180910390f35b61017760048036038101906101729190611895565b610cf2565b60405161018491906116c3565b60405180910390f35b6101a760048036038101906101a29190611895565b610e9b565b6040516101b491906116c3565b60405180910390f35b6101d760048036038101906101d29190611895565b610f86565b6040516101e491906116c3565b60405180910390f35b6101f5611160565b60405161020291906116c3565b60405180910390f35b61022560048036038101906102209190611895565b611167565b60405161023291906116c3565b60405180910390f35b610255600480360381019061025091906118d5565b611295565b60405161026291906116c3565b60405180910390f35b61028560048036038101906102809190611902565b6112ad565b60405161029291906116c3565b60405180910390f35b60025481565b60036020528060005260406000206000915090505481565b600080600060025411610301576040517f08c379a00000000000000000000000000000000000000000000000000000000081526004016102f8906119b2565b60405180910390fd5b60008311610344576040517f08c379a000000000000000000000000000000000000000000000000000000000815260040161033b90611a1e565b60405180910390fd5b600360003373ffffffffffffffffffffffffffffffffffffffff1673ffffffffffffffffffffffffffffffffffffffff168152602001908152602001600020548311156103c6576040517f08c379a00000000000000000000000000000000000000000000000000000000081526004016103bd90611a8a565b60405180910390fd5b60006103f260008054906101000a900473ffffffffffffffffffffffffffffffffffffffff1685610e9b565b90506000610422600160009054906101000a900473ffffffffffffffffffffffffffffffffffffffff1686610e9b565b905084600360003373ffffffffffffffffffffffffffffffffffffffff1673ffffffffffffffffffffffffffffffffffffffff16815260200190815260200160002060008282546104739190611ad9565b92505081905550846002600082825461048c9190611ad9565b9250508190555081600460008060009054906101000a900473ffffffffffffffffffffffffffffffffffffffff1673ffffffffffffffffffffffffffffffffffffffff1673ffffffffffffffffffffffffffffffffffffffff16815260200190815260200160002060008282546105039190611ad9565b925050819055508060046000600160009054906101000a900473ffffffffffffffffffffffffffffffffffffffff1673ffffffffffffffffffffffffffffffffffffffff1673ffffffffffffffffffffffffffffffffffffffff168152602001908152602001600020600082825461057b9190611ad9565b9250508190555060008054906101000a900473ffffffffffffffffffffffffffffffffffffffff1673ffffffffffffffffffffffffffffffffffffffff1663a9059cbb33846040518363ffffffff1660e01b81526004016105dd929190611b1c565b602060405180830381600087803b1580156105f757600080fd5b505af115801561060b573d6000803e3d6000fd5b505050506040513d601f19601f8201168201806040525081019061062f9190611b7d565b50600160009054906101000a900473ffffffffffffffffffffffffffffffffffffffff1673ffffffffffffffffffffffffffffffffffffffff1663a9059cbb33836040518363ffffffff1660e01b815260040161068d929190611b1c565b602060405180830381600087803b1580156106a757600080fd5b505af11580156106bb573d6000803e3d6000fd5b505050506040513d601f19601f820116820180604052508101906106df9190611b7d565b508181935093505050915091565b60008460008054906101000a900473ffffffffffffffffffffffffffffffffffffffff1673ffffffffffffffffffffffffffffffffffffffff168173ffffffffffffffffffffffffffffffffffffffff1614806107975750600160009054906101000a900473ffffffffffffffffffffffffffffffffffffffff1673ffffffffffffffffffffffffffffffffffffffff168173ffffffffffffffffffffffffffffffffffffffff16145b6107d6576040517f08c379a00000000000000000000000000000000000000000000000000000000081526004016107cd90611bf6565b60405180910390fd5b8360008054906101000a900473ffffffffffffffffffffffffffffffffffffffff1673ffffffffffffffffffffffffffffffffffffffff168173ffffffffffffffffffffffffffffffffffffffff16148061087e5750600160009054906101000a900473ffffffffffffffffffffffffffffffffffffffff1673ffffffffffffffffffffffffffffffffffffffff168173ffffffffffffffffffffffffffffffffffffffff16145b6108bd576040517f08c379a00000000000000000000000000000000000000000000000000000000081526004016108b490611bf6565b60405180910390fd5b60008611610900576040517f08c379a00000000000000000000000000000000000000000000000000000000081526004016108f790611c62565b60405180910390fd5b60008411610943576040517f08c379a000000000000000000000000000000000000000000000000000000000815260040161093a90611c62565b60405180910390fd5b600080600254141561096657620f4240606461095f9190611c82565b9050610a66565b6000600460008a73ffffffffffffffffffffffffffffffffffffffff1673ffffffffffffffffffffffffffffffffffffffff16815260200190815260200160002054886002546109b69190611c82565b6109c09190611d0b565b90506000600460008973ffffffffffffffffffffffffffffffffffffffff1673ffffffffffffffffffffffffffffffffffffffff1681526020019081526020016000205487600254610a129190611c82565b610a1c9190611d0b565b9050808214610a60576040517f08c379a0000000000000000000000000000000000000000000000000000000008152600401610a5790611dae565b60405180910390fd5b81925050505b60008111610aa9576040517f08c379a0000000000000000000000000000000000000000000000000000000008152600401610aa090611e40565b60405180910390fd5b8773ffffffffffffffffffffffffffffffffffffffff166323b872dd33308a6040518463ffffffff1660e01b8152600401610ae693929190611e60565b602060405180830381600087803b158015610b0057600080fd5b505af1158015610b14573d6000803e3d6000fd5b505050506040513d601f19601f82011682018060405250810190610b389190611b7d565b508573ffffffffffffffffffffffffffffffffffffffff166323b872dd3330886040518463ffffffff1660e01b8152600401610b7693929190611e60565b602060405180830381600087803b158015610b9057600080fd5b505af1158015610ba4573d6000803e3d6000fd5b505050506040513d601f19601f82011682018060405250810190610bc89190611b7d565b5086600460008a73ffffffffffffffffffffffffffffffffffffffff1673ffffffffffffffffffffffffffffffffffffffff1681526020019081526020016000206000828254610c189190611e97565b9250508190555084600460008873ffffffffffffffffffffffffffffffffffffffff1673ffffffffffffffffffffffffffffffffffffffff1681526020019081526020016000206000828254610c6e9190611e97565b925050819055508060026000828254610c879190611e97565b9250508190555080600360003373ffffffffffffffffffffffffffffffffffffffff1673ffffffffffffffffffffffffffffffffffffffff1681526020019081526020016000206000828254610cdd9190611e97565b92505081905550809350505050949350505050565b60008060025411610d38576040517f08c379a0000000000000000000000000000000000000000000000000000000008152600401610d2f906119b2565b60405180910390fd5b600460008473ffffffffffffffffffffffffffffffffffffffff1673ffffffffffffffffffffffffffffffffffffffff168152602001908152602001600020548210610db9576040517f08c379a0000000000000000000000000000000000000000000000000000000008152600401610db090611f39565b60405180910390fd5b6000610dc484611519565b9050600083600460008473ffffffffffffffffffffffffffffffffffffffff1673ffffffffffffffffffffffffffffffffffffffff168152602001908152602001600020546103e8610e169190611c82565b610e209190611c82565b9050600084600460008873ffffffffffffffffffffffffffffffffffffffff1673ffffffffffffffffffffffffffffffffffffffff16815260200190815260200160002054610e6f9190611ad9565b6103e5610e7c9190611c82565b905060008183610e8c9190611d0b565b90508094505050505092915050565b60008060025411610ee1576040517f08c379a0000000000000000000000000000000000000000000000000000000008152600401610ed8906119b2565b60405180910390fd5b600254821115610f26576040517f08c379a0000000000000000000000000000000000000000000000000000000008152600401610f1d90611fcb565b60405180910390fd5b600254600460008573ffffffffffffffffffffffffffffffffffffffff1673ffffffffffffffffffffffffffffffffffffffff1681526020019081526020016000205483610f749190611c82565b610f7e9190611d0b565b905092915050565b60008260008054906101000a900473ffffffffffffffffffffffffffffffffffffffff1673ffffffffffffffffffffffffffffffffffffffff168173ffffffffffffffffffffffffffffffffffffffff1614806110305750600160009054906101000a900473ffffffffffffffffffffffffffffffffffffffff1673ffffffffffffffffffffffffffffffffffffffff168173ffffffffffffffffffffffffffffffffffffffff16145b61106f576040517f08c379a000000000000000000000000000000000000000000000000000000000815260040161106690611bf6565b60405180910390fd5b6000600254116110b4576040517f08c379a00000000000000000000000000000000000000000000000000000000081526004016110ab906119b2565b60405180910390fd5b60006110bf85611519565b9050600460008673ffffffffffffffffffffffffffffffffffffffff1673ffffffffffffffffffffffffffffffffffffffff1681526020019081526020016000205484600460008473ffffffffffffffffffffffffffffffffffffffff1673ffffffffffffffffffffffffffffffffffffffff1681526020019081526020016000205461114c9190611c82565b6111569190611d0b565b9250505092915050565b620f424081565b600080600254116111ad576040517f08c379a00000000000000000000000000000000000000000000000000000000081526004016111a4906119b2565b60405180910390fd5b60006111b884611519565b905060006103e5846111ca9190611c82565b90506000600460008473ffffffffffffffffffffffffffffffffffffffff1673ffffffffffffffffffffffffffffffffffffffff16815260200190815260200160002054826112199190611c82565b90506000826103e8600460008a73ffffffffffffffffffffffffffffffffffffffff1673ffffffffffffffffffffffffffffffffffffffff1681526020019081526020016000205461126b9190611c82565b6112759190611e97565b9050600081836112859190611d0b565b9050809550505050505092915050565b60046020528060005260406000206000915090505481565b600080600254116112f3576040517f08c379a00000000000000000000000000000000000000000000000000000000081526004016112ea906119b2565b60405180910390fd5b60008211611336576040517f08c379a000000000000000000000000000000000000000000000000000000000815260040161132d90611c62565b60405180910390fd5b60006113428584611167565b90508473ffffffffffffffffffffffffffffffffffffffff166323b872dd3330866040518463ffffffff1660e01b815260040161138193929190611e60565b602060405180830381600087803b15801561139b57600080fd5b505af11580156113af573d6000803e3d6000fd5b505050506040513d601f19601f820116820180604052508101906113d39190611b7d565b5082600460008773ffffffffffffffffffffffffffffffffffffffff1673ffffffffffffffffffffffffffffffffffffffff16815260200190815260200160002060008282546114239190611e97565b9250508190555080600460008673ffffffffffffffffffffffffffffffffffffffff1673ffffffffffffffffffffffffffffffffffffffff16815260200190815260200160002060008282546114799190611ad9565b925050819055508373ffffffffffffffffffffffffffffffffffffffff1663a9059cbb33836040518363ffffffff1660e01b81526004016114bb929190611b1c565b602060405180830381600087803b1580156114d557600080fd5b505af11580156114e9573d6000803e3d6000fd5b505050506040513d601f19601f8201168201806040525081019061150d9190611b7d565b50809150509392505050565b60008160008054906101000a900473ffffffffffffffffffffffffffffffffffffffff1673ffffffffffffffffffffffffffffffffffffffff168173ffffffffffffffffffffffffffffffffffffffff1614806115c35750600160009054906101000a900473ffffffffffffffffffffffffffffffffffffffff1673ffffffffffffffffffffffffffffffffffffffff168173ffffffffffffffffffffffffffffffffffffffff16145b611602576040517f08c379a00000000000000000000000000000000000000000000000000000000081526004016115f990611bf6565b60405180910390fd5b60008054906101000a900473ffffffffffffffffffffffffffffffffffffffff1673ffffffffffffffffffffffffffffffffffffffff168373ffffffffffffffffffffffffffffffffffffffff16141561168057600160009054906101000a900473ffffffffffffffffffffffffffffffffffffffff1691506116a4565b60008054906101000a900473ffffffffffffffffffffffffffffffffffffffff1691505b50919050565b6000819050919050565b6116bd816116aa565b82525050565b60006020820190506116d860008301846116b4565b92915050565b600080fd5b600073ffffffffffffffffffffffffffffffffffffffff82169050919050565b600061170e826116e3565b9050919050565b61171e81611703565b811461172957600080fd5b50565b60008135905061173b81611715565b92915050565b600060208284031215611757576117566116de565b5b60006117658482850161172c565b91505092915050565b611777816116aa565b811461178257600080fd5b50565b6000813590506117948161176e565b92915050565b6000602082840312156117b0576117af6116de565b5b60006117be84828501611785565b91505092915050565b60006040820190506117dc60008301856116b4565b6117e960208301846116b4565b9392505050565b60006117fb82611703565b9050919050565b61180b816117f0565b811461181657600080fd5b50565b60008135905061182881611802565b92915050565b60008060008060808587031215611848576118476116de565b5b600061185687828801611819565b945050602061186787828801611785565b935050604061187887828801611819565b925050606061188987828801611785565b91505092959194509250565b600080604083850312156118ac576118ab6116de565b5b60006118ba85828601611819565b92505060206118cb85828601611785565b9150509250929050565b6000602082840312156118eb576118ea6116de565b5b60006118f984828501611819565b91505092915050565b60008060006060848603121561191b5761191a6116de565b5b600061192986828701611819565b935050602061193a86828701611819565b925050604061194b86828701611785565b9150509250925092565b600082825260208201905092915050565b7f5a65726f204c6971756964697479000000000000000000000000000000000000600082015250565b600061199c600e83611955565b91506119a782611966565b602082019050919050565b600060208201905081810360008301526119cb8161198f565b9050919050565b7f73686172652063616e6e6f74206265207a65726f210000000000000000000000600082015250565b6000611a08601583611955565b9150611a13826119d2565b602082019050919050565b60006020820190508181036000830152611a37816119fb565b9050919050565b7f496e73756666696369656e742073686172650000000000000000000000000000600082015250565b6000611a74601283611955565b9150611a7f82611a3e565b602082019050919050565b60006020820190508181036000830152611aa381611a67565b9050919050565b7f4e487b7100000000000000000000000000000000000000000000000000000000600052601160045260246000fd5b6000611ae4826116aa565b9150611aef836116aa565b925082821015611b0257611b01611aaa565b5b828203905092915050565b611b1681611703565b82525050565b6000604082019050611b316000830185611b0d565b611b3e60208301846116b4565b9392505050565b60008115159050919050565b611b5a81611b45565b8114611b6557600080fd5b50565b600081519050611b7781611b51565b92915050565b600060208284031215611b9357611b926116de565b5b6000611ba184828501611b68565b91505092915050565b7f546f6b656e206973206e6f7420696e2074686520706f6f6c0000000000000000600082015250565b6000611be0601883611955565b9150611beb82611baa565b602082019050919050565b60006020820190508181036000830152611c0f81611bd3565b9050919050565b7f416d6f756e742063616e6e6f74206265207a65726f2100000000000000000000600082015250565b6000611c4c601683611955565b9150611c5782611c16565b602082019050919050565b60006020820190508181036000830152611c7b81611c3f565b9050919050565b6000611c8d826116aa565b9150611c98836116aa565b9250817fffffffffffffffffffffffffffffffffffffffffffffffffffffffffffffffff0483118215151615611cd157611cd0611aaa565b5b828202905092915050565b7f4e487b7100000000000000000000000000000000000000000000000000000000600052601260045260246000fd5b6000611d16826116aa565b9150611d21836116aa565b925082611d3157611d30611cdc565b5b828204905092915050565b7f4571756976616c656e742076616c7565206f6620746f6b656e73206e6f74207060008201527f726f76696465642e2e2e00000000000000000000000000000000000000000000602082015250565b6000611d98602a83611955565b9150611da382611d3c565b604082019050919050565b60006020820190508181036000830152611dc781611d8b565b9050919050565b7f41737365742076616c7565206c657373207468616e207468726573686f6c642060008201527f666f7220636f6e747269627574696f6e21000000000000000000000000000000602082015250565b6000611e2a603183611955565b9150611e3582611dce565b604082019050919050565b60006020820190508181036000830152611e5981611e1d565b9050919050565b6000606082019050611e756000830186611b0d565b611e826020830185611b0d565b611e8f60408301846116b4565b949350505050565b6000611ea2826116aa565b9150611ead836116aa565b9250827fffffffffffffffffffffffffffffffffffffffffffffffffffffffffffffffff03821115611ee257611ee1611aaa565b5b828201905092915050565b7f496e73756666696369656e7420706f6f6c2062616c616e636500000000000000600082015250565b6000611f23601983611955565b9150611f2e82611eed565b602082019050919050565b60006020820190508181036000830152611f5281611f16565b9050919050565b7f53686172652073686f756c64206265206c657373207468616e20746f74616c5360008201527f6861726500000000000000000000000000000000000000000000000000000000602082015250565b6000611fb5602483611955565b9150611fc082611f59565b604082019050919050565b60006020820190508181036000830152611fe481611fa8565b905091905056fea264697066735822122023f9aeb806df53f6f8b1b6490d3a3c07c408fe17a1ebdd5b1a8283f380c149d464736f6c63430008090033",
  "linkReferences": {},
  "deployedLinkReferences": {}
}