{
  "_format": "hh-sol-artifact-1",
  "contractName": "AMM",
  "sourceName": "contracts/AMM.sol",
  "abi": [
    {
      "inputs": [
        {
          "internalType": "contract IERC20",
          "name": "_tokenX",
          "type": "address"
        },
        {
          "internalType": "contract IERC20",
          "name": "_tokenY",
          "type": "address"
        }
      ],
      "stateMutability": "nonpayable",
      "type": "constructor"
    },
    {
      "inputs": [],
      "name": "PRECISION",
      "outputs": [
        {
          "internalType": "uint256",
          "name": "",
          "type": "uint256"
        }
      ],
      "stateMutability": "view",
      "type": "function"
    },
    {
      "inputs": [
        {
          "internalType": "contract IERC20",
          "name": "_srcToken",
          "type": "address"
        },
        {
          "internalType": "uint256",
          "name": "_amountSrc",
          "type": "uint256"
        }
      ],
      "name": "equivalentToken",
      "outputs": [
        {
          "internalType": "uint256",
          "name": "",
          "type": "uint256"
        }
      ],
      "stateMutability": "view",
      "type": "function"
    },
    {
      "inputs": [
        {
          "internalType": "contract IERC20",
          "name": "_tokenX",
          "type": "address"
        },
        {
          "internalType": "uint256",
          "name": "_amountX",
          "type": "uint256"
        },
        {
          "internalType": "contract IERC20",
          "name": "_tokenY",
          "type": "address"
        },
        {
          "internalType": "uint256",
          "name": "_amountY",
          "type": "uint256"
        }
      ],
      "name": "provide",
      "outputs": [
        {
          "internalType": "uint256",
          "name": "",
          "type": "uint256"
        }
      ],
      "stateMutability": "nonpayable",
      "type": "function"
    },
    {
      "inputs": [
        {
          "internalType": "address",
          "name": "",
          "type": "address"
        }
      ],
      "name": "shares",
      "outputs": [
        {
          "internalType": "uint256",
          "name": "",
          "type": "uint256"
        }
      ],
      "stateMutability": "view",
      "type": "function"
    },
    {
      "inputs": [
        {
          "internalType": "contract IERC20",
          "name": "_srcToken",
          "type": "address"
        },
        {
          "internalType": "contract IERC20",
          "name": "_dstToken",
          "type": "address"
        },
        {
          "internalType": "uint256",
          "name": "_amountSrc",
          "type": "uint256"
        }
      ],
      "name": "swap",
      "outputs": [
        {
          "internalType": "uint256",
          "name": "",
          "type": "uint256"
        }
      ],
      "stateMutability": "nonpayable",
      "type": "function"
    },
    {
      "inputs": [
        {
          "internalType": "contract IERC20",
          "name": "_dstToken",
          "type": "address"
        },
        {
          "internalType": "uint256",
          "name": "_amountDst",
          "type": "uint256"
        }
      ],
      "name": "swapEstimateFromDstToken",
      "outputs": [
        {
          "internalType": "uint256",
          "name": "",
          "type": "uint256"
        }
      ],
      "stateMutability": "view",
      "type": "function"
    },
    {
      "inputs": [
        {
          "internalType": "contract IERC20",
          "name": "_srcToken",
          "type": "address"
        },
        {
          "internalType": "uint256",
          "name": "_amountSrc",
          "type": "uint256"
        }
      ],
      "name": "swapEstimateFromSrcToken",
      "outputs": [
        {
          "internalType": "uint256",
          "name": "",
          "type": "uint256"
        }
      ],
      "stateMutability": "view",
      "type": "function"
    },
    {
      "inputs": [
        {
          "internalType": "contract IERC20",
          "name": "",
          "type": "address"
        }
      ],
      "name": "totalAmount",
      "outputs": [
        {
          "internalType": "uint256",
          "name": "",
          "type": "uint256"
        }
      ],
      "stateMutability": "view",
      "type": "function"
    },
    {
      "inputs": [],
      "name": "totalShares",
      "outputs": [
        {
          "internalType": "uint256",
          "name": "",
          "type": "uint256"
        }
      ],
      "stateMutability": "view",
      "type": "function"
    },
    {
      "inputs": [
        {
          "internalType": "uint256",
          "name": "_share",
          "type": "uint256"
        }
      ],
      "name": "withdraw",
      "outputs": [
        {
          "internalType": "uint256",
          "name": "",
          "type": "uint256"
        },
        {
          "internalType": "uint256",
          "name": "",
          "type": "uint256"
        }
      ],
      "stateMutability": "nonpayable",
      "type": "function"
    },
    {
      "inputs": [
        {
          "internalType": "contract IERC20",
          "name": "_token",
          "type": "address"
        },
        {
          "internalType": "uint256",
          "name": "_share",
          "type": "uint256"
        }
      ],
      "name": "withdrawEstimate",
      "outputs": [
        {
          "internalType": "uint256",
          "name": "",
          "type": "uint256"
        }
      ],
      "stateMutability": "view",
      "type": "function"
    }
  ],
  "bytecode": "0x60806040523480156200001157600080fd5b50604051620023333803806200233383398181016040528101906200003791906200013f565b81600160006101000a81548173ffffffffffffffffffffffffffffffffffffffff021916908373ffffffffffffffffffffffffffffffffffffffff16021790555080600260006101000a81548173ffffffffffffffffffffffffffffffffffffffff021916908373ffffffffffffffffffffffffffffffffffffffff160217905550505062000186565b600080fd5b600073ffffffffffffffffffffffffffffffffffffffff82169050919050565b6000620000f382620000c6565b9050919050565b60006200010782620000e6565b9050919050565b6200011981620000fa565b81146200012557600080fd5b50565b60008151905062000139816200010e565b92915050565b60008060408385031215620001595762000158620000c1565b5b6000620001698582860162000128565b92505060206200017c8582860162000128565b9150509250929050565b61219d80620001966000396000f3fe608060405234801561001057600080fd5b50600436106100a95760003560e01c8063b19fcc2b11610071578063b19fcc2b1461017b578063ce7c2ac2146101ab578063d72b9da2146101db578063d94a9a311461020b578063df791e501461023b578063e410a3611461026b576100a9565b80632e1a7d4d146100ae5780633279081a146100df5780633a98ef391461010f578063a30fcc351461012d578063aaf5eb681461015d575b600080fd5b6100c860048036038101906100c39190611837565b61029b565b6040516100d6929190611873565b60405180910390f35b6100f960048036038101906100f4919061190c565b6107aa565b6040516101069190611973565b60405180910390f35b610117610e47565b6040516101249190611973565b60405180910390f35b6101476004803603810190610142919061198e565b610e4d565b6040516101549190611973565b60405180910390f35b610165610fd8565b6040516101729190611973565b60405180910390f35b6101956004803603810190610190919061198e565b610fdf565b6040516101a29190611973565b60405180910390f35b6101c560048036038101906101c091906119fa565b6110ca565b6040516101d29190611973565b60405180910390f35b6101f560048036038101906101f09190611a27565b6110e2565b6040516102029190611973565b60405180910390f35b6102256004803603810190610220919061198e565b6110fa565b6040516102329190611973565b60405180910390f35b61025560048036038101906102509190611a54565b611291565b6040516102629190611973565b60405180910390f35b6102856004803603810190610280919061198e565b6114ff565b6040516102929190611973565b60405180910390f35b6000806000600354116102e3576040517f08c379a00000000000000000000000000000000000000000000000000000000081526004016102da90611b04565b60405180910390fd5b8260008111610327576040517f08c379a000000000000000000000000000000000000000000000000000000000815260040161031e90611b70565b60405180910390fd5b600460003373ffffffffffffffffffffffffffffffffffffffff1673ffffffffffffffffffffffffffffffffffffffff168152602001908152602001600020548111156103a9576040517f08c379a00000000000000000000000000000000000000000000000000000000081526004016103a090611bdc565b60405180910390fd5b60006103d7600160009054906101000a900473ffffffffffffffffffffffffffffffffffffffff1686610fdf565b90506000610407600260009054906101000a900473ffffffffffffffffffffffffffffffffffffffff1687610fdf565b905085600460003373ffffffffffffffffffffffffffffffffffffffff1673ffffffffffffffffffffffffffffffffffffffff16815260200190815260200160002060008282546104589190611c2b565b9250508190555085600360008282546104719190611c2b565b925050819055508160056000600160009054906101000a900473ffffffffffffffffffffffffffffffffffffffff1673ffffffffffffffffffffffffffffffffffffffff1673ffffffffffffffffffffffffffffffffffffffff16815260200190815260200160002060008282546104e99190611c2b565b925050819055508060056000600260009054906101000a900473ffffffffffffffffffffffffffffffffffffffff1673ffffffffffffffffffffffffffffffffffffffff1673ffffffffffffffffffffffffffffffffffffffff16815260200190815260200160002060008282546105619190611c2b565b9250508190555060056000600260009054906101000a900473ffffffffffffffffffffffffffffffffffffffff1673ffffffffffffffffffffffffffffffffffffffff1673ffffffffffffffffffffffffffffffffffffffff1681526020019081526020016000205460056000600160009054906101000a900473ffffffffffffffffffffffffffffffffffffffff1673ffffffffffffffffffffffffffffffffffffffff1673ffffffffffffffffffffffffffffffffffffffff168152602001908152602001600020546106369190611c5f565b600081905550600160009054906101000a900473ffffffffffffffffffffffffffffffffffffffff1673ffffffffffffffffffffffffffffffffffffffff1663a9059cbb33846040518363ffffffff1660e01b8152600401610699929190611cc8565b602060405180830381600087803b1580156106b357600080fd5b505af11580156106c7573d6000803e3d6000fd5b505050506040513d601f19601f820116820180604052508101906106eb9190611d29565b50600260009054906101000a900473ffffffffffffffffffffffffffffffffffffffff1673ffffffffffffffffffffffffffffffffffffffff1663a9059cbb33836040518363ffffffff1660e01b8152600401610749929190611cc8565b602060405180830381600087803b15801561076357600080fd5b505af1158015610777573d6000803e3d6000fd5b505050506040513d601f19601f8201168201806040525081019061079b9190611d29565b50818194509450505050915091565b600084600160009054906101000a900473ffffffffffffffffffffffffffffffffffffffff1673ffffffffffffffffffffffffffffffffffffffff168173ffffffffffffffffffffffffffffffffffffffff1614806108565750600260009054906101000a900473ffffffffffffffffffffffffffffffffffffffff1673ffffffffffffffffffffffffffffffffffffffff168173ffffffffffffffffffffffffffffffffffffffff16145b610895576040517f08c379a000000000000000000000000000000000000000000000000000000000815260040161088c90611da2565b60405180910390fd5b83600160009054906101000a900473ffffffffffffffffffffffffffffffffffffffff1673ffffffffffffffffffffffffffffffffffffffff168173ffffffffffffffffffffffffffffffffffffffff16148061093f5750600260009054906101000a900473ffffffffffffffffffffffffffffffffffffffff1673ffffffffffffffffffffffffffffffffffffffff168173ffffffffffffffffffffffffffffffffffffffff16145b61097e576040517f08c379a000000000000000000000000000000000000000000000000000000000815260040161097590611da2565b60405180910390fd5b85600081116109c2576040517f08c379a00000000000000000000000000000000000000000000000000000000081526004016109b990611e0e565b60405180910390fd5b8460008111610a06576040517f08c379a00000000000000000000000000000000000000000000000000000000081526004016109fd90611e0e565b60405180910390fd5b6000806003541415610a2957620f42406064610a229190611c5f565b9050610b29565b6000600560008c73ffffffffffffffffffffffffffffffffffffffff1673ffffffffffffffffffffffffffffffffffffffff168152602001908152602001600020548a600354610a799190611c5f565b610a839190611e5d565b90506000600560008b73ffffffffffffffffffffffffffffffffffffffff1673ffffffffffffffffffffffffffffffffffffffff1681526020019081526020016000205489600354610ad59190611c5f565b610adf9190611e5d565b9050808214610b23576040517f08c379a0000000000000000000000000000000000000000000000000000000008152600401610b1a90611f00565b60405180910390fd5b81925050505b60008111610b6c576040517f08c379a0000000000000000000000000000000000000000000000000000000008152600401610b6390611f92565b60405180910390fd5b8973ffffffffffffffffffffffffffffffffffffffff166323b872dd33308c6040518463ffffffff1660e01b8152600401610ba993929190611fb2565b602060405180830381600087803b158015610bc357600080fd5b505af1158015610bd7573d6000803e3d6000fd5b505050506040513d601f19601f82011682018060405250810190610bfb9190611d29565b508773ffffffffffffffffffffffffffffffffffffffff166323b872dd33308a6040518463ffffffff1660e01b8152600401610c3993929190611fb2565b602060405180830381600087803b158015610c5357600080fd5b505af1158015610c67573d6000803e3d6000fd5b505050506040513d601f19601f82011682018060405250810190610c8b9190611d29565b5088600560008c73ffffffffffffffffffffffffffffffffffffffff1673ffffffffffffffffffffffffffffffffffffffff1681526020019081526020016000206000828254610cdb9190611fe9565b9250508190555086600560008a73ffffffffffffffffffffffffffffffffffffffff1673ffffffffffffffffffffffffffffffffffffffff1681526020019081526020016000206000828254610d319190611fe9565b92505081905550600560008973ffffffffffffffffffffffffffffffffffffffff1673ffffffffffffffffffffffffffffffffffffffff16815260200190815260200160002054600560008c73ffffffffffffffffffffffffffffffffffffffff1673ffffffffffffffffffffffffffffffffffffffff16815260200190815260200160002054610dc29190611c5f565b6000819055508060036000828254610dda9190611fe9565b9250508190555080600460003373ffffffffffffffffffffffffffffffffffffffff1673ffffffffffffffffffffffffffffffffffffffff1681526020019081526020016000206000828254610e309190611fe9565b925050819055508095505050505050949350505050565b60035481565b60008060035411610e93576040517f08c379a0000000000000000000000000000000000000000000000000000000008152600401610e8a90611b04565b60405180910390fd5b600560008473ffffffffffffffffffffffffffffffffffffffff1673ffffffffffffffffffffffffffffffffffffffff168152602001908152602001600020548210610f14576040517f08c379a0000000000000000000000000000000000000000000000000000000008152600401610f0b9061208b565b60405180910390fd5b6000610f1f84611665565b9050600083600560008773ffffffffffffffffffffffffffffffffffffffff1673ffffffffffffffffffffffffffffffffffffffff16815260200190815260200160002054610f6e9190611c2b565b9050600081600054610f809190611e5d565b9050600560008473ffffffffffffffffffffffffffffffffffffffff1673ffffffffffffffffffffffffffffffffffffffff1681526020019081526020016000205481610fcd9190611c2b565b935050505092915050565b620f424081565b60008060035411611025576040517f08c379a000000000000000000000000000000000000000000000000000000000815260040161101c90611b04565b60405180910390fd5b60035482111561106a576040517f08c379a00000000000000000000000000000000000000000000000000000000081526004016110619061211d565b60405180910390fd5b600354600560008573ffffffffffffffffffffffffffffffffffffffff1673ffffffffffffffffffffffffffffffffffffffff16815260200190815260200160002054836110b89190611c5f565b6110c29190611e5d565b905092915050565b60046020528060005260406000206000915090505481565b60056020528060005260406000206000915090505481565b600082600160009054906101000a900473ffffffffffffffffffffffffffffffffffffffff1673ffffffffffffffffffffffffffffffffffffffff168173ffffffffffffffffffffffffffffffffffffffff1614806111a65750600260009054906101000a900473ffffffffffffffffffffffffffffffffffffffff1673ffffffffffffffffffffffffffffffffffffffff168173ffffffffffffffffffffffffffffffffffffffff16145b6111e5576040517f08c379a00000000000000000000000000000000000000000000000000000000081526004016111dc90611da2565b60405180910390fd5b60006111f085611665565b9050600560008673ffffffffffffffffffffffffffffffffffffffff1673ffffffffffffffffffffffffffffffffffffffff1681526020019081526020016000205484600560008473ffffffffffffffffffffffffffffffffffffffff1673ffffffffffffffffffffffffffffffffffffffff1681526020019081526020016000205461127d9190611c5f565b6112879190611e5d565b9250505092915050565b600080600354116112d7576040517f08c379a00000000000000000000000000000000000000000000000000000000081526004016112ce90611b04565b60405180910390fd5b816000811161131b576040517f08c379a000000000000000000000000000000000000000000000000000000000815260040161131290611e0e565b60405180910390fd5b600061132786856114ff565b90508573ffffffffffffffffffffffffffffffffffffffff166323b872dd3330876040518463ffffffff1660e01b815260040161136693929190611fb2565b602060405180830381600087803b15801561138057600080fd5b505af1158015611394573d6000803e3d6000fd5b505050506040513d601f19601f820116820180604052508101906113b89190611d29565b5083600560008873ffffffffffffffffffffffffffffffffffffffff1673ffffffffffffffffffffffffffffffffffffffff16815260200190815260200160002060008282546114089190611fe9565b9250508190555080600560008773ffffffffffffffffffffffffffffffffffffffff1673ffffffffffffffffffffffffffffffffffffffff168152602001908152602001600020600082825461145e9190611c2b565b925050819055508473ffffffffffffffffffffffffffffffffffffffff1663a9059cbb33836040518363ffffffff1660e01b81526004016114a0929190611cc8565b602060405180830381600087803b1580156114ba57600080fd5b505af11580156114ce573d6000803e3d6000fd5b505050506040513d601f19601f820116820180604052508101906114f29190611d29565b5080925050509392505050565b60008060035411611545576040517f08c379a000000000000000000000000000000000000000000000000000000000815260040161153c90611b04565b60405180910390fd5b600061155084611665565b9050600083600560008773ffffffffffffffffffffffffffffffffffffffff1673ffffffffffffffffffffffffffffffffffffffff1681526020019081526020016000205461159f9190611fe9565b90506000816000546115b19190611e5d565b9050600081600560008673ffffffffffffffffffffffffffffffffffffffff1673ffffffffffffffffffffffffffffffffffffffff168152602001908152602001600020546116009190611c2b565b9050600560008573ffffffffffffffffffffffffffffffffffffffff1673ffffffffffffffffffffffffffffffffffffffff168152602001908152602001600020548114156116585780806116549061213d565b9150505b8094505050505092915050565b600081600160009054906101000a900473ffffffffffffffffffffffffffffffffffffffff1673ffffffffffffffffffffffffffffffffffffffff168173ffffffffffffffffffffffffffffffffffffffff1614806117115750600260009054906101000a900473ffffffffffffffffffffffffffffffffffffffff1673ffffffffffffffffffffffffffffffffffffffff168173ffffffffffffffffffffffffffffffffffffffff16145b611750576040517f08c379a000000000000000000000000000000000000000000000000000000000815260040161174790611da2565b60405180910390fd5b600160009054906101000a900473ffffffffffffffffffffffffffffffffffffffff1673ffffffffffffffffffffffffffffffffffffffff168373ffffffffffffffffffffffffffffffffffffffff1614156117d057600260009054906101000a900473ffffffffffffffffffffffffffffffffffffffff1691506117f6565b600160009054906101000a900473ffffffffffffffffffffffffffffffffffffffff1691505b50919050565b600080fd5b6000819050919050565b61181481611801565b811461181f57600080fd5b50565b6000813590506118318161180b565b92915050565b60006020828403121561184d5761184c6117fc565b5b600061185b84828501611822565b91505092915050565b61186d81611801565b82525050565b60006040820190506118886000830185611864565b6118956020830184611864565b9392505050565b600073ffffffffffffffffffffffffffffffffffffffff82169050919050565b60006118c78261189c565b9050919050565b60006118d9826118bc565b9050919050565b6118e9816118ce565b81146118f457600080fd5b50565b600081359050611906816118e0565b92915050565b60008060008060808587031215611926576119256117fc565b5b6000611934878288016118f7565b945050602061194587828801611822565b9350506040611956878288016118f7565b925050606061196787828801611822565b91505092959194509250565b60006020820190506119886000830184611864565b92915050565b600080604083850312156119a5576119a46117fc565b5b60006119b3858286016118f7565b92505060206119c485828601611822565b9150509250929050565b6119d7816118bc565b81146119e257600080fd5b50565b6000813590506119f4816119ce565b92915050565b600060208284031215611a1057611a0f6117fc565b5b6000611a1e848285016119e5565b91505092915050565b600060208284031215611a3d57611a3c6117fc565b5b6000611a4b848285016118f7565b91505092915050565b600080600060608486031215611a6d57611a6c6117fc565b5b6000611a7b868287016118f7565b9350506020611a8c868287016118f7565b9250506040611a9d86828701611822565b9150509250925092565b600082825260208201905092915050565b7f5a65726f204c6971756964697479000000000000000000000000000000000000600082015250565b6000611aee600e83611aa7565b9150611af982611ab8565b602082019050919050565b60006020820190508181036000830152611b1d81611ae1565b9050919050565b7f73686172652063616e6e6f74206265207a65726f210000000000000000000000600082015250565b6000611b5a601583611aa7565b9150611b6582611b24565b602082019050919050565b60006020820190508181036000830152611b8981611b4d565b9050919050565b7f496e73756666696369656e742073686172650000000000000000000000000000600082015250565b6000611bc6601283611aa7565b9150611bd182611b90565b602082019050919050565b60006020820190508181036000830152611bf581611bb9565b9050919050565b7f4e487b7100000000000000000000000000000000000000000000000000000000600052601160045260246000fd5b6000611c3682611801565b9150611c4183611801565b925082821015611c5457611c53611bfc565b5b828203905092915050565b6000611c6a82611801565b9150611c7583611801565b9250817fffffffffffffffffffffffffffffffffffffffffffffffffffffffffffffffff0483118215151615611cae57611cad611bfc565b5b828202905092915050565b611cc2816118bc565b82525050565b6000604082019050611cdd6000830185611cb9565b611cea6020830184611864565b9392505050565b60008115159050919050565b611d0681611cf1565b8114611d1157600080fd5b50565b600081519050611d2381611cfd565b92915050565b600060208284031215611d3f57611d3e6117fc565b5b6000611d4d84828501611d14565b91505092915050565b7f546f6b656e206973206e6f7420696e2074686520706f6f6c0000000000000000600082015250565b6000611d8c601883611aa7565b9150611d9782611d56565b602082019050919050565b60006020820190508181036000830152611dbb81611d7f565b9050919050565b7f416d6f756e742063616e6e6f74206265207a65726f2100000000000000000000600082015250565b6000611df8601683611aa7565b9150611e0382611dc2565b602082019050919050565b60006020820190508181036000830152611e2781611deb565b9050919050565b7f4e487b7100000000000000000000000000000000000000000000000000000000600052601260045260246000fd5b6000611e6882611801565b9150611e7383611801565b925082611e8357611e82611e2e565b5b828204905092915050565b7f4571756976616c656e742076616c7565206f6620746f6b656e73206e6f74207060008201527f726f76696465642e2e2e00000000000000000000000000000000000000000000602082015250565b6000611eea602a83611aa7565b9150611ef582611e8e565b604082019050919050565b60006020820190508181036000830152611f1981611edd565b9050919050565b7f41737365742076616c7565206c657373207468616e207468726573686f6c642060008201527f666f7220636f6e747269627574696f6e21000000000000000000000000000000602082015250565b6000611f7c603183611aa7565b9150611f8782611f20565b604082019050919050565b60006020820190508181036000830152611fab81611f6f565b9050919050565b6000606082019050611fc76000830186611cb9565b611fd46020830185611cb9565b611fe16040830184611864565b949350505050565b6000611ff482611801565b9150611fff83611801565b9250827fffffffffffffffffffffffffffffffffffffffffffffffffffffffffffffffff0382111561203457612033611bfc565b5b828201905092915050565b7f496e73756666696369656e7420706f6f6c2062616c616e636500000000000000600082015250565b6000612075601983611aa7565b91506120808261203f565b602082019050919050565b600060208201905081810360008301526120a481612068565b9050919050565b7f53686172652073686f756c64206265206c657373207468616e20746f74616c5360008201527f6861726500000000000000000000000000000000000000000000000000000000602082015250565b6000612107602483611aa7565b9150612112826120ab565b604082019050919050565b60006020820190508181036000830152612136816120fa565b9050919050565b600061214882611801565b9150600082141561215c5761215b611bfc565b5b60018203905091905056fea2646970667358221220acefd02b3b2cc48790a6e6a1278e4aaaaaa5f7172e506de18c2c6d87b780d54264736f6c63430008090033",
  "linkReferences": {},
  "deployedLinkReferences": {}
}